S01300005374726F62654C696768742E73726563AA
S11300000C943E000C945B000C945B000C945B001D
S11300100C94B2070C9489070C945B000C945B005D
S11300200C945B000C945B000C945B000C945B00E0
S11300300C945B000C94E3080C945B000C945B0040
S11300400C945B000C945B000C945B000C945B00C0
S11300500C945B000C945B000C945B000C945B00B0
S11300600C945B000C945B000C945B000C945B00A0
S11300700C945B000C945B000C945B0011241FBE79
S1130080CFEFCDBFDFE3DEBF18E3A0E0B8E3E8EFD6
S1130090F4E102C005900D92A431B107D9F728E329
S11300A0A4E1B8E301C01D92A435B207E1F70E94B0
S11300B005060C94780A0C9400000F931F93CF93B9
S11300C0DF93CDB7DEB72997CDBFDEBF09831A838F
S11300D02B833C834D835E836F837887898789E094
S11300E0FE013196ABE2B8E301900D928A95E1F7F7
S11300F02996CDBFDEBFDF91CF911F910F91089557
S1130100CF93DF9300D000D0CDB7DEB70E940C09A7
S11301100E9430040E94C3050E94AA058091F494B1
S11301209091F594A091F694B091F79489839A8371
S1130130AB83BC8348EC50E060E070E0CE010196F4
S11301400E9427088DEB98E00E94B8088CE694E0A2
S11301500E9484078DE590E00E94A5050E94FF0798
S11301602496CDBFDEBFDF91CF91089580912B38C7
S113017085FF15C01092193810922938109227382B
S1130180109228381092233881E090912A389111E6
S113019080E080932A3880912B388F7D7CC08091B9
S11301A02B3880FF15C010921938109229381092FC
S11301B027381092283810922A3881E090912338F9
S11301C0911180E08093233880912B388E7F63C017
S11301D080912B3881FF15C010921938109229385C
S11301E0109227381092233810922A3881E0909187
S11301F02838911180E08093283880912B388D7FA6
S11302004AC080912B3882FF15C010921938109281
S11302102938109228381092233810922A3881E015
S113022090912738911180E08093273880912B3862
S11302308B7F31C080912B3883FF15C01092193801
S113024010922738109228381092233810922A38A6
S113025081E090912938911180E080932938809130
S11302602B38877F18C080912B3884FF16C01092DA
S11302702938109227381092283810922338109277
S11302802A3881E090911938911180E080931938CF
S113029080912B388F7E80932B3880912A38882345
S11302A081F00E94D80880932538909326388B34A7
S11302B008F48DC083E00E94FB0584E00E94F005F1
S11302C013C0809123388823E9F00E94D8088093D2
S11302D02538909326388B3408F479C083E00E9443
S11302E0F00584E00E94FB0585E00E94F00582E0B1
S11302F00E94F00586E00E94F00587E00E94F00568
S11303000C94DD0880912838882369F083E00E94EA
S1130310F00584E00E94F00585E00E94E50582E096
S11303200E94F00510C080912738882391F083E063
S11303300E94F00584E00E94F00585E00E94F0052B
S113034082E00E94E50586E00E94F00587E00C94B7
S1130350F00580912938882381F083E00E94F0051C
S113036084E00E94F00585E00E94F00582E00E948E
S1130370F00586E00E94E505E9CF809119388823CD
S113038089F083E00E94F00584E00E94F00585E096
S11303900E94F00582E00E94F00586E00E94F005CC
S11303A087E013C083E00E94F00584E00E94F0051A
S11303B085E00E94F00582E00E94F00586E00E943C
S11303C0F00586E00E94F00581E00C94E5050895AF
S11303D080912B3885FF15C0109219381092293856
S11303E010922738109228381092233881E0909187
S11303F02A38911180E080932A3880912B388F7DA0
S11304007CC080912B3880FF15C01092193810924F
S11304102938109227381092283810922A3881E00F
S113042090912338911180E08093233880912B3868
S11304308E7F63C080912B3881FF15C010921938CC
S113044010922938109227381092233810922A38A3
S113045081E090912838911180E080932838809130
S11304602B388D7F4AC080912B3882FF15C01092A3
S11304701938109229381092283810922338109283
S11304802A3881E090912738911180E080932738B1
S113049080912B388B7F31C080912B3883FF15C01E
S11304A01092193810922738109228381092233855
S11304B010922A3881E090912938911180E080933C
S11304C0293880912B38877F18C080912B3884FF7E
S11304D016C010922938109227381092283810929A
S11304E0233810922A3881E090911938911180E0D4
S11304F08093193880912B388F7E80932B3880918C
S11305002A38882389F18091333882FF10C00E94F1
S1130510D80880932538909326388B3408F4ABC0E0
S113052083E00E94FB0584E00E94E5050FC00E9461
S1130530D80880932538909326388B3408F49BC0D0
S113054083E00E94FB0584E00E94F00585E00E94A0
S1130550F00582E00E94F00586E00E94F00587E045
S11305600E94F0050C94DD0880912338882309F15A
S11305708091333882FF0DC00E94D80880932538BB
S1130580909326388B3408F476C083E00E94E50506
S11305900CC00E94D80880932538909326388B3459
S11305A008F469C083E00E94F00584E00E94FB0522
S11305B0CDCF80912838882351F083E00E94F00544
S11305C084E00E94F00585E00E94E5050DC080915D
S11305D02738882381F083E00E94E50584E00E94A7
S11305E0E50585E00E94F00582E00E94F00586E0C2
S11305F00E94F00513C080912938882391F083E08C
S11306000E94F00584E00E94F00585E00E94F00558
S113061082E00E94F00586E00E94E50587E00C94E4
S1130620F00580911938882389F083E00E94F00551
S113063084E00E94F00585E00E94F00582E00E94BB
S1130640F00586E00E94F00587E013C083E00E9475
S1130650F00584E00E94F00585E00E94F00582E048
S11306600E94F00586E00E94F00586E00E94F005F5
S113067081E00C94E5050895CF938091183881307A
S1130680B1F170F0823009F457C0833009F097C09B
S11306900E94D8088093253890932638C2E383C0FB
S11306A00E94DD080E94D80880932538909326384C
S11306B0C2E30E94D80880932538909326386C2F83
S11306C00E946C0A9111F5CF83E00E94FB0584E03F
S11306D00E94F00585E00E94F00582E00E94F0058A
S11306E086E00E94F00587E00E94F005E2CF0E94B8
S11306F0D8088093253890932638C2E30E94D808FE
S113070080932538909326386C2F0E946C0A91119F
S1130710F5CF83E00E94F00584E00E94FB0585E0AC
S11307200E94F00582E00E94F00586E00E94F00538
S113073087E00E94F005E2CF0E94D8088093253814
S113074090932638C2E30E94D8088093253890936A
S113075026386C2F0E946C0A9111F5CF83E00E9419
S1130760F00584E00E94F00585E00E94F00582E037
S11307700E94FB0586E00E94F00587E00E94F005D8
S1130780E2CF83E00E94F00584E00E94F00585E05A
S11307900E94FB0582E00E94F00586E00E94F005BD
S11307A087E00E94F0050E94D80880932538909332
S11307B026386C2F0E946C0A9111F5CFE2CFCF91AD
S11307C0089587E198E30E94F10780912B3887FB15
S11307D0882780F98130F1F49091173891110BC07A
S11307E08093173890911638911135C0809316383C
S11307F0109215380CC0913021F510921738809161
S11308001538811126C0109216389093153810921D
S1130810143815C080912B3886FB992790F986FFF0
S113082010C082E08093173880911438811115C06C
S113083010921638109215389093143882E00E9462
S1130840D60780911738813031F018F0823039F4AE
S113085004C00C94B6000C94E8010C943C03089575
S113086049E060E082E00E940A0649E060E081E03D
S11308700E940A0649E061E081E00E940A0649E01C
S113088062E081E00E940A0649E063E081E00E94A0
S11308900A0649E064E081E00E940A0643E060E061
S11308A082E00E946C0745E060E081E00E946C07F2
S11308B045E061E081E00E946C0743E062E081E092
S11308C00E946C0745E063E081E00E946C0745E00C
S11308D064E081E00C946C070F931F93CF9381E045
S11308E00E943207C82F82E00E943207CF7120E2B3
S11308F0829FC00111242C2F282B8091363880939D
S113090047382093363810923F3880911A38282778
S1130910209348388091363885FF44C060E082E0F7
S11309200E94420780910138833071F40E94E008EC
S113093042E060E082E00E946C0782E0809301382C
S1130940809136388F7D75C0823009F0DFC00E94F7
S1130950D808809334389093353880913F388F7B12
S113096080933F38809141388F5F809341388091E4
S113097040388E7F8093403880913F388F778093C2
S11309803F3843E060E082E00E946C0783E080939C
S113099001388091363880628093363880913F38B0
S11309A08062B2C08091363880FF13C0809148388D
S11309B080FF0FC060E081E00E94420780913F38D1
S11309C0816080933F38809142388F5F80934238B2
S11309D08EC08091363881FF13C08091483881FFE2
S11309E00FC061E081E00E94420780913F3882603D
S11309F080933F38809143388F5F8093433877C02A
S1130A008091363882FF46C062E081E00E9442074E
S1130A1080910038833081F40E94E00842E062E073
S1130A2081E00E946C0782E0809300388091363820
S1130A308B7F809336386AC0823009F067C00E9489
S1130A40D808809334389093353880913F388F7725
S1130A5080933F38809144388F5F809344388091ED
S1130A6040388E7F8093403880913F388F7B8093CD
S1130A703F3843E062E081E00E946C0783E08093AA
S1130A8000388091363884608093363880913F38BE
S1130A9084603AC08091363883FF13C0809148380F
S1130AA083FF0FC063E081E00E94420780913F38DA
S1130AB0886080933F38809145388F5F80934538B4
S1130AC016C08091363884FF21C08091483884FF55
S1130AD01DC064E081E00E94420780913F3880613C
S1130AE080933F38809146388F5F80934638809159
S1130AF040388E7F8093403880913F388F7B80933D
S1130B003F3880913F388F7780933F3880913638D3
S1130B1080931A38E0911B38F0911C3800913F38CB
S1130B2010914038209141383091423840914338F7
S1130B3050914438609145387091463880914738D7
S1130B400995CF911F910F91089580931B3890932D
S1130B501C380895CF93DF9300D000D0CDB7DEB713
S1130B6019821A8287E08B831C8243EC50E060E098
S1130B7070E0CE0101960E9427082496CDBFDEBF07
S1130B80DF91CF9108950F931F93CF93DF93C2E02A
S1130B90D8E38E0147E0F801608181810E940A0652
S1130BA00E5F1F4FF8E302311F07A1F740E0688191
S1130BB089810E94B306229688E3C231D807B1F72F
S1130BC0DF91CF911F910F910895E82FF0E0EE0F80
S1130BD0FF1FEE5FF74C41E0608181810C94B30606
S1130BE0E82FF0E0EE0FFF1FEE5FF74C40E060816E
S1130BF081810C94B306E82FF0E0EE0FFF1FEE5F47
S1130C00F74C608181810C9408070E9480000E9447
S1130C10E103FDCF483081F1493009F468C0473021
S1130C2009F0A0C0813081F018F08230C9F0089535
S1130C302091000481E090E001C0880F6A95EAF7F2
S1130C40822B8093000408952091200481E090E099
S1130C5001C0880F6A95EAF7822B809320040895D7
S1130C602091400481E090E001C0880F6A95EAF782
S1130C70822B8093400408958130A9F018F08230CB
S1130C8019F1089520910004E62FF0E081E090E04E
S1130C9001C0880F6A95EAF7809582238093000447
S1130CA0E05FFB4F21C020912004E62FF0E081E0BB
S1130CB090E001C0880F6A95EAF7809582238093BB
S1130CC02004E05DFB4F10C020914004E62FF0E0CB
S1130CD081E090E001C0880F6A95EAF7809582234D
S1130CE080934004E05BFB4F8081877F3AC0813072
S1130CF0A9F018F0823019F1089520910004E62F2C
S1130D00F0E081E090E001C0880F6A95EAF78095F1
S1130D10822380930004E05FFB4F21C020912004D4
S1130D20E62FF0E081E090E001C0880F6A95EAF7D1
S1130D308095822380932004E05DFB4F10C02091B6
S1130D404004E62FF0E081E090E001C0880F6A954E
S1130D50EAF78095822380934004E05BFB4F808117
S1130D60886080830895413021F5813071F018F056
S1130D708230A9F008952091040481E090E001C03C
S1130D80880F6A95EAF7822B26C02091240481E01B
S1130D9090E001C0880F6A95EAF7822B29C0209160
S1130DA0440481E090E001C0880F6A95EAF7822B41
S1130DB02CC041112CC0813089F018F08230D9F058
S1130DC008952091040481E090E001C0880F6A95A1
S1130DD0EAF78095822380930404089520912404E3
S1130DE081E090E001C0880F6A95EAF7809582233C
S1130DF08093240408952091440481E090E001C08C
S1130E00880F6A95EAF780958223809344040895B5
S1130E10813081F018F08230C9F0089520910404E3
S1130E2081E090E001C0880F6A95EAF782278093F9
S1130E30040408952091240481E090E001C0880F07
S1130E406A95EAF782278093240408952091440444
S1130E5081E090E001C0880F6A95EAF782278093C9
S1130E6044040895813049F028F0823049F4809197
S1130E7049040895809109040895809129040895EE
S1130E8080E00895813081F018F08230C9F008952F
S1130E902091090481E090E001C0880F6A95EAF787
S1130EA0822B8093090408952091290481E090E025
S1130EB001C0880F6A95EAF7822B8093290408956C
S1130EC02091490481E090E001C0880F6A95EAF717
S1130ED0822B809349040895813049F018F08230C0
S1130EE059F00895E62FF0E0E05FFB4F09C0E62FCC
S1130EF0F0E0E05DFB4F04C0E62FF0E0E05BFB4F69
S1130F008081482B4083089580931D3890931E3828
S1130F1008951F920F920FB60F9211242F933F93AF
S1130F204F935F936F937F938F939F93AF93BF93ED
S1130F30EF93FF93E0911D38F0911E38309709F03C
S1130F400995FF91EF91BF91AF919F918F917F91FF
S1130F506F915F914F913F912F910F900FBE0F9022
S1130F601F9018951F920F920FB60F9211242F9372
S1130F703F934F935F936F937F938F939F93AF931D
S1130F80BF93EF93FF930E948907FF91EF91BF9165
S1130F90AF919F918F917F916F915F914F913F910D
S1130FA02F910F900FBE0F901F901895CF93C82FBD
S1130FB083E080931F388091021081FDFCCF0E9452
S1130FC00308C0930B138DE984BF80911F38082F49
S1130FD0009300108091021081FDFCCFCF910C94FE
S1130FE0FF072091021021FDFCCF00910B13009309
S1130FF0081020910610222FFC01208308958FB73A
S113100080688FBF08958FB78F778FBF0895811140
S113101006C08091000A8E7F8093000A0895813073
S113102029F48091400A8E7F8093400A08958111AB
S113103006C08091000A81608093000A089581307F
S113104029F48091400A81608093400A0895CF92E8
S1131050DF92EF92FF92CF93DF93EC0188818111AD
S113106032C0109224380E9407088981811179C006
S11310708091010A8E7F8093010A8091010A887F02
S11310809981892B8093010A8A81883008F069C08C
S11310909091000A917F880F892B8093000A8A819E
S11310A0809353388B81813031F48091050A8160BB
S11310B08093050A56C0811154C08091040A81604E
S11310C08093040A4EC0813009F04BC080932438C9
S11310D08091400A8E7F8093400A8981811141C0AA
S11310E08091410A887F8093410A8091400A9A81C5
S11310F0990F897F892B8093400A8091450A8160EA
S11311008093450ACB01BA010E94B5092AE030EE6A
S11311104EE959E30E9414096B017C0120E030E0A0
S113112040E857E40E94430A18164CF420E030E0EB
S113113040EA51E4C701B6010E94140902C0C70184
S1131140B6010E94860960934C0A70934D0A8091FF
S11311502438DF91CF91FF90EF90DF90CF900C94E3
S11311601708DF91CF91FF90EF90DF90CF90089513
S1131170809321389093223808958091460A8160A3
S11311808093460A809151388F5F809351388091C3
S113119052388F5F80935238809120388F5F84312A
S11311A019F080932038089510922038A895089556
S11311B08091513890915238089510925138089581
S11311C01092523808951F920F920FB60F92112465
S11311D02F933F934F935F936F937F938F939F933B
S11311E0AF93BF93EF93FF93E0912138F0912238AE
S11311F0309709F00995FF91EF91BF91AF919F91BD
S11312008F917F916F915F914F913F912F910F90AB
S11312100FBE0F901F90189588ED84BF80911238EF
S1131220082F0093000108950E9428090C94090ACC
S11312300E94020A58F00E94FB0940F029F45F3F23
S113124029F00C94F20951110C943D0A0C94F809FC
S11312500E941A0A68F39923B1F3552391F3951B5D
S1131260550BBB27AA2762177307840738F09F5FC3
S11312705F4F220F331F441FAA1FA9F335D00E2E30
S11312803AF0E0E832D091505040E695001CCAF79D
S11312902BD0FE2F29D0660F771F881FBB1F261760
S11312A037074807AB07B0E809F0BB0B802DBF0137
S11312B0FF2793585F4F3AF09E3F510578F00C9406
S11312C0F2090C943D0A5F3FE4F3983ED4F386950B
S11312D077956795B795F7959F5FC9F7880F911D27
S11312E09695879597F90895E1E0660F771F881F13
S11312F0BB1F621773078407BA0720F0621B730BC6
S1131300840BBA0BEE1F88F7E09508950E94220A19
S113131088F09F5798F0B92F9927B751B0F0E1F0B2
S1131320660F771F881F991F1AF0BA95C9F714C062
S1131330B13091F00E943C0AB1E008950C943C0A4B
S1131340672F782F8827B85F39F0B93FCCF386959B
S113135077956795B395D9F73EF4909580957095F8
S113136061957F4F8F4F9F4F0895E89409C097FB75
S11313703EF490958095709561957F4F8F4F9F4F68
S11313809923A9F0F92F96E9BB279395F6958795AC
S113139077956795B795F111F8CFFAF4BB0F11F46F
S11313A060FF1BC06F5F7F4F8F4F9F4F16C0882316
S11313B011F096E911C0772321F09EE8872F762F4C
S11313C005C0662371F096E8862F70E060E02AF08D
S11313D09A95660F771F881FDAF7880F9695879579
S11313E097F9089597F99F6780E870E060E00895A1
S11313F09FEF80EC089500240A9416161706180629
S11314000906089500240A94121613061406050604
S11314100895092E0394000C11F4882352F0BB0F95
S113142040F4BF2B11F460FF04C06F5F7F4F8F4FF8
S11314309F4F089557FD9058440F551F59F05F3F33
S113144071F04795880F97FB991F61F09F3F79F0E2
S113145087950895121613061406551FF2CF469564
S1131460F1DF08C0161617061806991FF1CF8695E6
S11314707105610508940895E894BB2766277727CA
S1131480CB0197F908950E94480A08F48FEF089554
S1131490990F0008550FAA0BE0E8FEEF1616170681
S11314A0E807F907C0F012161306E407F50798F0E9
S11314B0621B730B840B950B39F40A2661F0232B02
S11314C0242B252B21F408950A2609F4A140A6957E
S11314D08FEF811D811D0895991B79E004C0991F28
S11314E0961708F0961B881F7A95C9F7809508957A
S10714F0F894FFCF9A
S10714F401000001EE
S11314F803030200010005010302020201020700BE
S107150806000800CD
S9030000FC
