S01300005374726F62654C696768742E73726563AA
S11300000C943E000C945B000C945B000C945B001D
S11300100C94D4080C94AB080C945B000C945B0017
S11300200C945B000C945B000C945B000C945B00E0
S11300300C945B000C94460A0C945B000C945B00DB
S11300400C945B000C945B000C945B000C945B00C0
S11300500C945B000C945B000C945B000C945B00B0
S11300600C945B000C945B000C945B000C945B00A0
S11300700C945B000C945B000C945B0011241FBE79
S1130080CFEFCDBFDFE3DEBF18E3A0E0B8E3E6EADD
S1130090F7E102C005900D92A231B107D9F728E328
S11300A0A2E1B8E301C01D92AC34B207E1F70E94AB
S11300B027070C94CF0B0C94000080933238609384
S11300C035380895CF93DF9300D000D0CDB7DEB795
S11300D00E946F0A0E9474050E94E5060E94CC06E5
S11300E08091A2979091A397A091A497B091A5977E
S11300F089839A83AB83BC8348EC50E060E070E072
S1130100CE0101960E9449098FED99E00E94DA0917
S113011080EB95E00E94A6088DE590E00E94C7065A
S11301200E9421092496CDBFDEBFDF91CF910895AF
S11301308091323885FF15C01092183810923038EB
S113014010922D3810922E381092223881E090911E
S11301503138911180E080933138809132388F7D2D
S11301607CC08091323880FF15C0109218381092EC
S1130170303810922D3810922E381092313881E098
S113018090912238911180E0809322388091323806
S11301908E7F63C08091323881FF15C01092183869
S11301A01092303810922D38109222381092313833
S11301B081E090912E38911180E080932E388091C7
S11301C032388D7F4AC08091323882FF15C0109238
S11301D018381092303810922E381092223810921B
S11301E0313881E090912D38911180E080932D3841
S11301F0809132388B7F31C08091323883FF15C0B3
S11302001092183810922D3810922E3810922238ED
S11302101092313881E090913038911180E08093D0
S1130220303880913238877F18C08091323884FF0B
S113023018C01092303810922D3810922E38109227
S113024022381092313881E090911838911180E071
S113025080931838809132388F7E809332380E9490
S1130260340A80913138882339F10E94160A209388
S11302702538309326384093273850932838609394
S1130280293870932A3880932B3890932C38809196
S1130290253890912638A0912738B09128388B348E
S11302A09105A105B10508F4A1C082E00E941D07D3
S11302B083E00E9412072AC0809122388823A1F18A
S11302C00E94160A20932538309326384093273805
S11302D0509328386093293870932A3880932B38A8
S11302E090932C388091253890912638A091273806
S11302F0B09128388B349105A105B10508F476C076
S113030082E00E94120783E00E941D0784E00E949D
S1130310120781E00E94120785E00E94120786E01E
S11303200E9412070C94340A80912E38882369F0B5
S113033082E00E94120783E00E94120784E00E9478
S1130340070781E00E94120710C080912D3888238E
S113035089F082E00E94120783E00E94120784E081
S11303600E94120781E00E94070785E00E9412079D
S113037086E03AC080913038882381F082E00E9480
S1130380120783E00E94120784E00E94120781E0B2
S11303900E94120785E00E940707EACF809118386F
S11303A0882391F082E00E94120783E00E941207E2
S11303B084E00E94120781E00E94120785E00E94F7
S11303C0120786E00C94070782E00E94120783E07C
S11303D00E94120784E00E94120781E00E94120723
S11303E085E00E94120785E00C941207089590910D
S11303F032388091313895FF15C091E0811190E039
S113040090933138809132388F7D8093323881E0F7
S113041080931338809122388111109222380E94DF
S1130420340A58C09091323890FF14C091E0209162
S11304302238211190E090932238909132389E7F97
S11304409093323891E090931338882341F31092BB
S11304503138E5CF8091323881FF0BC081E0909133
S11304602E38911180E080932E38809132388D7F20
S11304702CC08091323882FF0BC081E090912D38DE
S1130480911180E080932D38809132388B7F1DC08C
S11304908091323883FF0BC081E090913038911104
S11304A080E08093303880913238877F0EC080910D
S11304B0323884FF0FC081E090911838911180E0A8
S11304C080931838809132388F7E8093323881E05F
S11304D080931338809113388130F1F4809131384E
S11304E0811109C080912238882311F082E004C070
S11304F082E00E94120783E00E94120784E00E94B7
S1130500120781E00E94120785E00E94120786E02C
S11305100E9412071092133880912D38882399F085
S113052080913138811109C080912238882311F0DB
S113053082E004C082E00E94070783E00E9407076C
S113054081E00E94070780913138882321F10E94BD
S1130550160A209325383093263840932738509331
S113056028386093293870932A3880932B389093D5
S11305702C388091253890912638A0912738B09155
S113058028388B349105A105B10528F082E00E943A
S11305901D070E94340A80912238882321F10E9489
S11305A0160A2093253830932638409327385093E1
S11305B028386093293870932A3880932B38909385
S11305C02C388091253890912638A0912738B09105
S11305D028388B349105A105B10528F083E00E94E9
S11305E01D070E94340A80912E38882319F084E074
S11305F00E94070780913038882319F085E00E9413
S1130600070780911838882319F086E00E940707AD
S113061080913138811126C080912238811122C005
S113062080912E3881111EC080912D3881111AC0FD
S113063080913038811116C080911838811112C010
S113064082E00E94120783E00E94120784E00E9465
S1130650120781E00E94120785E00E94120785E0DC
S11306600C941207089580911738813009F463C0FF
S113067038F0823009F417C1833009F4B7C0089503
S11306800E94340A0E94160A209325383093263893
S113069040932738509328386093293870932A3828
S11306A080932B3890932C3880911238873030F017
S11306B00E94340A1092123881E0F2C080913238DC
S11306C087FFF6CF0E94160A2093253830932638E8
S11306D040932738509328386093293870932A38E8
S11306E080932B3890932C3880912538909126381C
S11306F0A0912738B09128388B349105A105B10514
S113070098F282E00E941D0783E00E94120784E0B1
S11307100E94120781E00E94120785E00E941207DE
S113072086E00E9412070E94340A809112388F5F7B
S113073080931238B9CF0E94340A0E94160A20937B
S113074025383093263840932738509328386093BF
S1130750293870932A3880932B3890932C388091C1
S113076012388730E8F58091323887FF39C00E940B
S1130770160A20932538309326384093273850930F
S113078028386093293870932A3880932B389093B3
S11307902C388091253890912638A0912738B09133
S11307A028388B349105A105B105C8F282E00E9476
S11307B0120783E00E941D0784E00E94120781E073
S11307C00E94120785E00E94120786E00E94120729
S11307D00E94340A809112388F5F80931238BFCF01
S11307E00E94340A1092123883E05AC00E94340ADC
S11307F00E94160A209325383093263840932738D0
S1130800509328386093293870932A3880932B3872
S113081090932C38809112388730E8F580913238E3
S113082087FF39C00E94160A209325383093263852
S113083040932738509328386093293870932A3886
S113084080932B3890932C388091253890912638BA
S1130850A0912738B09128388B349105A105B105B2
S1130860C8F282E00E94120783E00E94120784E02B
S11308700E941D0781E00E94120785E00E94120772
S113088086E00E9412070E94340A809112388F5F1A
S113089080931238BFCF0E94340A1092123882E03B
S11308A08093173808950E94340A0E94160A2093F0
S11308B0253830932638409327385093283860934E
S11308C0293870932A3880932B3890932C38809150
S11308D01238873008F0ECCE8091323887FFE8CEAA
S11308E00E94160A209325383093263840932738DF
S11308F0509328386093293870932A3880932B3882
S113090090932C388091253890912638A0912738DF
S1130910B09128388B349105A105B105C0F282E06D
S11309200E94120783E00E94120784E00E941207CB
S113093081E00E941D0785E00E94120786E00E9464
S113094012070E94340A809112388F5F8093123804
S1130950BECFCF938091143881110FC086E198E304
S11309600E941309809116388F3F39F4109216387B
S113097081E080931438809300388091323887FB6B
S1130980882780F9813009F072C09091163891114E
S113099016C080931638109218381092303810927E
S11309A02D3810922E3810922238109231389091AE
S11309B032389B7F909332388093003817C091303F
S11309C0A9F41092163810921838109230381092F8
S11309D02D3810922E38109222381092313880918E
S11309E032388B7F80933238909300380E94340AD7
S11309F00E94160A209325383093263840932738CE
S1130A00509328386093293870932A3880932B3870
S1130A1090932C38C0E0C53029F10E94160A209327
S1130A2025383093263840932738509328386093DC
S1130A30293870932A3880932B3890932C388091DE
S1130A40253890912638A0912738B0912838C2973C
S1130A50A105B10500F381E00E941D070E94340A3C
S1130A60CF5FD9CF809132388F778093323890918D
S1130A7032388091163896FB222720F996FF0FC052
S1130A808230C1F08093153882E0809316388091CB
S1130A9032388F7D80933238209300380BC08230F7
S1130AA049F490911538909316388093153881E065
S1130AB08093003880910038813021F48091163879
S1130AC00E94F80880911638813049F028F082306D
S1130AD049F4CF910C943303CF910C949800CF91A7
S1130AE00C94F701CF91089549E060E082E00E9400
S1130AF02C0749E060E081E00E942C0749E061E0B6
S1130B0081E00E942C0749E062E081E00E942C070A
S1130B1049E063E081E00E942C0749E064E081E061
S1130B200E942C0741E060E082E00E948E0843E0CE
S1130B3060E081E00E948E0843E061E081E00E9471
S1130B408E0841E062E081E00E948E0843E063E0A9
S1130B5081E00E948E0843E064E081E00C948E08FA
S1130B60CF9381E00E945408C82F82E00E94540869
S1130B709C2F9F7140E2849F90011124292B209384
S1130B803F38909119389093403810924138922709
S1130B909093423880913F3885FF4DC060E082E0F9
S1130BA00E94640880910238833049F40E943D0A0F
S1130BB082E08093023880913F388F7D70C082300C
S1130BC009F0D7C00E94160A20933738309338387A
S1130BD04093393850933A3860933B3870933C389B
S1130BE080933D3890933E3880913B3890913C38C7
S1130BF0A0913D38B0913E38843F9140A105B105A4
S1130C0020F4809141388F7B03C080914138806407
S1130C1080934138809141388F778093413883E0C5
S1130C208093023880913F38806280933F3880916E
S1130C30413880629CC080913F3880FF0CC0809115
S1130C40423880FF08C060E081E00E94640880911F
S1130C504138816082C080913F3881FF0CC080910F
S1130C60423881FF08C061E081E00E9464088091FD
S1130C704138826072C080913F3882FF4FC062E089
S1130C8081E00E94640880910138833059F40E9405
S1130C903D0A82E08093013880913F388B7F8093B6
S1130CA03F3867C0823009F064C00E94160A20935E
S1130CB03738309338384093393850933A38609302
S1130CC03B3870933C3880933D3890933E38809104
S1130CD03B3890913C38A0913D38B0913E38843FE8
S1130CE09140A105B10520F4809141388F7703C06C
S1130CF080914138806880934138809141388F7B5E
S1130D008093413883E08093013880913F38846038
S1130D1080933F3880914138846029C080913F3866
S1130D2083FF0CC08091423883FF08C063E081E0F8
S1130D300E9464088091413888600FC080913F38D8
S1130D4084FF17C08091423884FF13C064E081E0BF
S1130D500E94640880914138806180934138809179
S1130D6041388F7B80934138809141388F778093CD
S1130D70413880913F3880931938E0911A38F091C6
S1130D801B386091403880914138CF910994809309
S1130D901A3890931B380895CF93DF9300D000D076
S1130DA0CDB7DEB719821A8287E08B831C8243ECAD
S1130DB050E060E070E0CE0101960E94490924965B
S1130DC0CDBFDEBFDF91CF9108950F931F93CF93D3
S1130DD0DF93C3E0D8E38E0147E0F80160818181AD
S1130DE00E942C070E5F1F4FF8E301311F07A1F784
S1130DF040E0688189810E94D507229688E3C13149
S1130E00D807B1F7DF91CF911F910F910895E82F83
S1130E10F0E0EE0FFF1FED5FF74C41E06081818150
S1130E200C94D507E82FF0E0EE0FFF1FED5FF74CB1
S1130E3040E0608181810C94D507E82FF0E0EE0F4B
S1130E40FF1FED5FF74C608181810C942A080E949A
S1130E5062000E94A904FDCF483081F1493009F4B1
S1130E6068C0473009F0A0C0813081F018F08230AA
S1130E70C9F008952091000481E090E001C0880F3A
S1130E806A95EAF7822B8093000408952091200448
S1130E9081E090E001C0880F6A95EAF7822B809385
S1130EA0200408952091400481E090E001C0880F5F
S1130EB06A95EAF7822B8093400408958130A9F063
S1130EC018F0823019F1089520910004E62FF0E023
S1130ED081E090E001C0880F6A95EAF7809582234B
S1130EE080930004E05FFB4F21C020912004E62F93
S1130EF0F0E081E090E001C0880F6A95EAF7809500
S1130F00822380932004E05DFB4F10C020914004B5
S1130F10E62FF0E081E090E001C0880F6A95EAF7DF
S1130F208095822380934004E05BFB4F8081877F20
S1130F303AC08130A9F018F0823019F10895209157
S1130F400004E62FF0E081E090E001C0880F6A958C
S1130F50EAF78095822380930004E05FFB4F21C071
S1130F6020912004E62FF0E081E090E001C0880F9A
S1130F706A95EAF78095822380932004E05DFB4F15
S1130F8010C020914004E62FF0E081E090E001C021
S1130F90880F6A95EAF78095822380934004E05B8A
S1130FA0FB4F8081886080830895413021F5813032
S1130FB071F018F08230A9F008952091040481E0C2
S1130FC090E001C0880F6A95EAF7822B26C0209131
S1130FD0240481E090E001C0880F6A95EAF7822B2F
S1130FE029C02091440481E090E001C0880F6A95F3
S1130FF0EAF7822B2CC041112CC0813089F018F003
S11310008230D9F008952091040481E090E001C079
S1131010880F6A95EAF780958223809304040895E3
S11310202091240481E090E001C0880F6A95EAF7DA
S1131030809582238093240408952091440481E0C0
S113104090E001C0880F6A95EAF780958223809327
S113105044040895813081F018F08230C9F0089575
S11310602091040481E090E001C0880F6A95EAF7BA
S113107082278093040408952091240481E090E061
S113108001C0880F6A95EAF78227809324040895A3
S11310902091440481E090E001C0880F6A95EAF74A
S11310A08227809344040895813049F028F08230E7
S11310B049F4809149040895809109040895809128
S11310C02904089580E00895813081F018F0823079
S11310D0C9F008952091090481E090E001C0880FCF
S11310E06A95EAF7822B80930904089520912904D4
S11310F081E090E001C0880F6A95EAF7822B809323
S1131100290408952091490481E090E001C0880FEA
S11311106A95EAF7822B809349040895813049F057
S113112018F0823059F00895E62FF0E0E05FFB4FAD
S113113009C0E62FF0E0E05DFB4F04C0E62FF0E0CD
S1131140E05BFB4F8081482B4083089580931C38DB
S113115090931D3808951F920F920FB60F92112489
S11311602F933F934F935F936F937F938F939F93AB
S1131170AF93BF93EF93FF93E0911C38F0911D3828
S1131180309709F00995FF91EF91BF91AF919F912D
S11311908F917F916F915F914F913F912F910F901C
S11311A00FBE0F901F9018951F920F920FB60F92BB
S11311B011242F933F934F935F936F937F938F9358
S11311C09F93AF93BF93EF93FF930E94AB08FF915C
S11311D0EF91BF91AF919F918F917F916F915F91AB
S11311E04F913F912F910F900FBE0F901F90189524
S11311F0CF93C82F83E080931E388091021081FD25
S1131200FCCF0E942509C0930B148DE984BF809103
S11312101E38082F009300108091021081FDFCCF2E
S1131220CF910C9421092091021021FDFCCF009153
S11312300B140093081020910610222FFC01208328
S113124008958FB780688FBF08958FB78F778FBF4A
S11312500895811106C08091000A8E7F8093000A50
S11312600895813029F48091400A8E7F8093400A4A
S11312700895811106C08091000A81608093000A5C
S11312800895813029F48091400A81608093400A56
S11312900895CF92DF92EF92FF92CF93DF93EC0108
S11312A08881811132C0109223380E9429098981D2
S11312B0811179C08091010A8E7F8093010A809107
S11312C0010A887F9981892B8093010A8A81883059
S11312D008F069C09091000A917F880F892B809350
S11312E0000A8A8180934B388B81813031F480915C
S11312F0050A81608093050A56C0811154C080910B
S1131300040A81608093040A4EC0813009F04BC006
S1131310809323388091400A8E7F8093400A89818C
S1131320811141C08091410A887F8093410A809154
S1131330400A9A81990F897F892B8093400A809172
S1131340450A81608093450ACB01BA010E94180BBB
S11313502AE030EE4EE959E30E94770A6B017C01E2
S113136020E030E040E857E40E94A60B18164CF445
S113137020E030E040EA51E4C701B6010E94770A58
S113138002C0C701B6010E94E90A60934C0A709337
S11313904D0A80912338DF91CF91FF90EF90DF9039
S11313A0CF900C943909DF91CF91FF90EF90DF90AB
S11313B0CF90089580932038909321380895809198
S11313C0460A81608093460A80914338909144385C
S11313D0A0914538B09146380196A11DB11D809366
S11313E0433890934438A0934538B093463880915D
S11313F0473890914838A0914938B0914A380196BD
S1131400A11DB11D8093473890934838A093493863
S1131410B0934A3880911F388F5F843119F08093DC
S11314201F38089510921F38A8950895CF93DF931D
S1131430CDB7DEB72897CDBFDEBF88E0E3E4F8E39D
S1131440DE01119601900D928A95E1F729813A8186
S11314504B815C816D817E818F8198852896CDBF7B
S1131460DEBFDF91CF910895109243381092443833
S113147010924538109246380895109247381092C9
S113148048381092493810924A3808951F920F92A2
S11314900FB60F9211242F933F934F935F936F9343
S11314A07F938F939F93AF93BF93EF93FF93E091B9
S11314B02038F0912138309709F00995FF91EF9188
S11314C0BF91AF919F918F917F916F915F914F9158
S11314D03F912F910F900FBE0F901F90189588ED9C
S11314E084BF80911138082F0093000108950E9451
S11314F08B0A0C946C0B0E94650B58F00E945E0BD7
S113150040F029F45F3F29F00C94550B51110C94D1
S1131510A00B0C945B0B0E947D0B68F39923B1F331
S1131520552391F3951B550BBB27AA276217730705
S1131530840738F09F5F5F4F220F331F441FAA1F99
S1131540A9F335D00E2E3AF0E0E832D09150504055
S1131550E695001CCAF72BD0FE2F29D0660F771F03
S1131560881FBB1F261737074807AB07B0E809F0E9
S1131570BB0B802DBF01FF2793585F4F3AF09E3F6E
S1131580510578F00C94550B0C94A00B5F3FE4F3D9
S1131590983ED4F3869577956795B795F7959F5FB1
S11315A0C9F7880F911D9695879597F90895E1E0FD
S11315B0660F771F881FBB1F621773078407BA075C
S11315C020F0621B730B840BBA0BEE1F88F7E095B7
S11315D008950E94850B88F09F5798F0B92F99279A
S11315E0B751B0F0E1F0660F771F881F991F1AF00A
S11315F0BA95C9F714C0B13091F00E949F0BB1E0C5
S113160008950C949F0B672F782F8827B85F39F0C3
S1131610B93FCCF3869577956795B395D9F73EF4A2
S113162090958095709561957F4F8F4F9F4F08954A
S1131630E89409C097FB3EF4909580957095619568
S11316407F4F8F4F9F4F9923A9F0F92F96E9BB271E
S11316509395F695879577956795B795F111F8CF9A
S1131660FAF4BB0F11F460FF1BC06F5F7F4F8F4F05
S11316709F4F16C0882311F096E911C0772321F0FB
S11316809EE8872F762F05C0662371F096E8862F93
S113169070E060E02AF09A95660F771F881FDAF7EA
S11316A0880F9695879597F9089597F99F6780E82D
S11316B070E060E008959FEF80EC089500240A94A0
S11316C01616170618060906089500240A94121619
S11316D01306140605060895092E0394000C11F44C
S11316E0882352F0BB0F40F4BF2B11F460FF04C0F9
S11316F06F5F7F4F8F4F9F4F089557FD9058440F52
S1131700551F59F05F3F71F04795880F97FB991F5C
S113171061F09F3F79F08795089512161306140619
S1131720551FF2CF4695F1DF08C0161617061806A6
S1131730991FF1CF86957105610508940895E89481
S1131740BB2766277727CB0197F908950E94AB0B37
S113175008F48FEF0895990F0008550FAA0BE0E8DD
S1131760FEEF16161706E807F907C0F0121613065F
S1131770E407F50798F0621B730B840B950B39F49F
S11317800A2661F0232B242B252B21F408950A2605
S113179009F4A140A6958FEF811D811D0895F89449
S10517A0FFCF75
S10717A2010000013D
S11317A60103030200050103020202010207000607
S10517B6000825
S9030000FC
