S01300005374726F62654C696768742E73726563AA
S11300000C943E000C945B000C945B000C945B001D
S11300100C945B000C945B000C945B000C945B00F0
S11300200C945B000C945B000C945B000C945B00E0
S11300300C945B000C9415030C945B000C945B0013
S11300400C945B000C945B000C945B000C945B00C0
S11300500C945B000C945B000C945B000C945B00B0
S11300600C945B000C945B000C945B000C945B00A0
S11300700C945B000C945B000C945B0011241FBE79
S1130080CFEFCDBFDFE3DEBF18E3A0E0B8E3EAE1E2
S1130090FAE002C005900D92A030B107D9F728E329
S11300A0A0E0B8E301C01D92AB30B207E1F70E94B3
S11300B0C2000C9403050C940000CF93DF9300D08E
S11300C000D0CDB7DEB719821A8287E08B831C82F9
S11300D043EC50E060E070E0CE0101960E947702AC
S11300E02496CDBFDEBFDF91CF91089510920438DE
S11300F00E940B02809104380E9467020E94080348
S113010080930038809100388823C1F3109200381E
S1130110809104380C94570267E082E00E94D90071
S113012067E083E10E94D90067E082E10E94D90080
S113013067E081E10E94D90067E08DE00E94D90068
S113014067E081E00E94D90061E083E10E949F01A1
S113015061E082E10E949F0161E081E10E949F01D0
S113016061E08DE00E949F0161E082E00E949F01B6
S113017061E081E00C949F0160E00C949F0161E0D8
S11301800C949F010E948C000E945D0083E10E94F8
S1130190BC0068EE73E080E090E00E94760083E1AA
S11301A00E94BF0068EE73E080E090E00E94760059
S11301B0EDCF982F96959695969587706830B1F106
S11301C0693009F477C0673009F0B8C0913081F024
S11301D018F09230E1F008959091000421E030E0AD
S11301E0082E01C0220F0A94EAF7292B2093000459
S11301F04091200421E030E0B90102C0660F771F6E
S11302008A95E2F7CB01842B8093200408954091D2
S1130210400421E030E0B90102C0660F771F8A95DF
S1130220E2F7CB01842B8093400408959130C1F010
S113023018F0923049F1089540910004E82FF0E05D
S113024021E030E0B90102C0660F771F8A95E2F71A
S1130250CB018095842380930004E05FFB4F27C08B
S113026040912004E82FF0E021E030E0B90102C021
S1130270660F771F8A95E2F7CB01809584238093DC
S11302802004E05DFB4F13C040914004E82FF0E0F0
S113029021E030E0B90102C0660F771F8A95E2F7CA
S11302A0CB018095842380934004E05BFB4F8081E5
S11302B0877F43C09130C1F018F0923049F108951E
S11302C040910004E82FF0E021E030E0B90102C0E1
S11302D0660F771F8A95E2F7CB018095842380937C
S11302E00004E05FFB4F27C040912004E82FF0E0BA
S11302F021E030E0B90102C0660F771F8A95E2F76A
S1130300CB018095842380932004E05DFB4F13C0D0
S113031040914004E82FF0E021E030E0B90102C050
S1130320660F771F8A95E2F7CB018095842380932B
S11303304004E05BFB4F8081886080830895982FA0
S11303409695969596958770613069F5913089F008
S113035018F09230D9F008954091040421E030E07F
S1130360B90102C0660F771F8A95E2F7CB01842B8F
S11303702FC04091240421E030E0B90102C0660F8F
S1130380771F8A95E2F7CB01842B32C04091440455
S113039021E030E0B90102C0660F771F8A95E2F7C9
S11303A0CB01842B35C0611135C09130A1F018F018
S11303B0923009F108954091040421E030E0B9013C
S11303C002C0660F771F8A95E2F7CB0180958423DC
S11303D08093040408954091240421E030E0B9019D
S11303E002C0660F771F8A95E2F7CB0180958423BC
S11303F08093240408954091440421E030E0B9013D
S113040002C0660F771F8A95E2F7CB01809584239B
S11304108093440408958F929F92AF92BF92CF929B
S1130420DF92EF92FF92E0910A38E83050F4F0E066
S1130430EE0FFF1FE65FF547C080D180E12CF12C61
S113044003C0C12CD12C76010E94DF034B015C0157
S1130450C701B6010E94DF0320E83AE649E45AE402
S11304600E943E0320E030E04AE754E40E94720414
S11304709B01AC01C501B4010E943E030E94B0037C
S11304806093260A7093270A8091050A88608093F6
S1130490050A8091040A84608093040AFF90EF9017
S11304A0DF90CF90BF90AF909F908F90089581116F
S11304B006C08091000A8E7F8093000A08958130DF
S11304C029F48091400A8E7F8093400A0895811117
S11304D006C08091000A81608093000A08958130EB
S11304E029F48091400A81608093400A0895CF9254
S11304F0DF92EF92FF92CF93DF93EC018881811119
S113050032C0109204380E9457028981811179C047
S11305108091010A8E7F8093010A8091010A887F6D
S11305209981892B8093010A8A81883008F069C0F7
S11305309091000A917F880F892B8093000A8A8109
S113054080930A388B81813031F48091050A81606F
S11305508093050A56C0811154C08091040A8160B9
S11305608093040A4EC0813009F04BC08093043854
S11305708091400A8E7F8093400A8981811141C015
S11305808091410A887F8093410A8091400A9A8130
S1130590990F897F892B8093400A8091450A816055
S11305A08093450ACB01BA010E94DF032AE030EEB2
S11305B04EE959E30E943E036B017C0120E030E0E8
S11305C040E857E40E946D0418164CF420E030E033
S11305D040E751E4C701B6010E943E0302C0C701CF
S11305E0B6010E94B00360934C0A70934D0A809147
S11305F00438DF91CF91FF90EF90DF90CF900C946F
S11306006702DF91CF91FF90EF90DF90CF90089534
S113061080910B0A80FF07C080910B0A8160809350
S11306200B0A81E0089580E008951F920F920FB69F
S11306300F9211242F933F934F935F936F937F9364
S11306408F939F93AF93BF93EF93FF93E091013800
S1130650F0910238309709F00995FF91EF91BF911D
S1130660AF919F918F917F916F915F914F913F9146
S11306702F910F900FBE0F901F9018950E94520358
S11306800C9433040E942C0458F00E94250440F07A
S113069029F45F3F29F00C941C0451110C94670455
S11306A00C9422040E94440468F39923B1F3552363
S11306B091F3951B550BBB27AA2762177307840771
S11306C038F09F5F5F4F220F331F441FAA1FA9F307
S11306D035D00E2E3AF0E0E832D091505040E695F5
S11306E0001CCAF72BD0FE2F29D0660F771F881F56
S11306F0BB1F261737074807AB07B0E809F0BB0B49
S1130700802DBF01FF2793585F4F3AF09E3F51055C
S113071078F00C941C040C9467045F3FE4F3983E57
S1130720D4F3869577956795B795F7959F5FC9F745
S1130730880F911D9695879597F90895E1E0660FC6
S1130740771F881FBB1F621773078407BA0720F03F
S1130750621B730B840BBA0BEE1F88F7E0950895A8
S11307600E944C0488F09F5798F0B92F9927B751ED
S1130770B0F0E1F0660F771F881F991F1AF0BA9541
S1130780C9F714C0B13091F00E946604B1E0089535
S11307900C946604672F782F8827B85F39F0B93F27
S11307A0CCF3869577956795B395D9F73EF49095F4
S11307B08095709561957F4F8F4F9F4F0895E89472
S11307C009C097FB3EF490958095709561957F4F95
S11307D08F4F9F4F9923A9F0F92F96E9BB27939543
S11307E0F695879577956795B795F111F8CFFAF453
S11307F0BB0F11F460FF1BC06F5F7F4F8F4F9F4F84
S113080016C0882311F096E911C0772321F09EE8E1
S1130810872F762F05C0662371F096E8862F70E047
S113082060E02AF09A95660F771F881FDAF7880F21
S11308309695879597F9089597F99F6780E870E0F2
S113084060E008959FEF80EC089500240A94161642
S1130850170618060906089500240A9412161306AA
S1130860140605060895092E0394000C11F4882338
S113087052F0BB0F40F4BF2B11F460FF04C06F5F54
S11308807F4F8F4F9F4F089557FD9058440F551F2A
S113089059F05F3F71F04795880F97FB991F61F0FE
S11308A09F3F79F087950895121613061406551F75
S11308B0F2CF4695F1DF08C0161617061806991FE1
S11308C0F1CF86957105610508940895E894BB27D6
S11308D066277727CB0197F908950E94DF0408F46F
S11308E08FEF08950E9485040C9433040E9425041C
S11308F038F00E942C0420F0952311F00C941C0471
S11309000C94220411240C9467040E94440470F390
S1130910959FC1F3950F50E0551F629FF001729FA0
S1130920BB27F00DB11D639FAA27F00DB11DAA1FAF
S1130930649F6627B00DA11D661F829F2227B00DFC
S1130940A11D621F739FB00DA11D621F839FA00D87
S1130950611D221F749F3327A00D611D231F849FD7
S1130960600D211D822F762F6A2F11249F5750402E
S11309709AF0F1F088234AF0EE0FFF1FBB1F661FA9
S1130980771F881F91505040A9F79E3F510580F072
S11309900C941C040C9467045F3FE4F3983ED4F376
S11309A0869577956795B795F795E7959F5FC1F716
S11309B0FE2B880F911D9695879597F90895990FA9
S11309C00008550FAA0BE0E8FEEF16161706E80715
S11309D0F907C0F012161306E407F50798F0621B36
S11309E0730B840B950B39F40A2661F0232B242B0B
S11309F0252B21F408950A2609F4A140A6958FEF2A
S10D0A00811D811D0895F894FFCFB5
S1130A0A0100020004000800100040000001000474
S9030000FC
